{
	"HighYieldVault.sol": {
		"HighYieldVault": {
			"abi": [
				{
					"inputs": [],
					"stateMutability": "payable",
					"type": "constructor"
				},
				{
					"anonymous": false,
					"inputs": [
						{
							"indexed": true,
							"internalType": "address",
							"name": "user",
							"type": "address"
						},
						{
							"indexed": false,
							"internalType": "uint256",
							"name": "amount",
							"type": "uint256"
						}
					],
					"name": "Deposit",
					"type": "event"
				},
				{
					"anonymous": false,
					"inputs": [
						{
							"indexed": true,
							"internalType": "address",
							"name": "user",
							"type": "address"
						},
						{
							"indexed": true,
							"internalType": "address",
							"name": "to",
							"type": "address"
						},
						{
							"indexed": false,
							"internalType": "uint256",
							"name": "amount",
							"type": "uint256"
						}
					],
					"name": "Withdraw",
					"type": "event"
				},
				{
					"inputs": [],
					"name": "deposit",
					"outputs": [],
					"stateMutability": "payable",
					"type": "function"
				},
				{
					"inputs": [
						{
							"internalType": "address",
							"name": "",
							"type": "address"
						}
					],
					"name": "deposits",
					"outputs": [
						{
							"internalType": "uint256",
							"name": "",
							"type": "uint256"
						}
					],
					"stateMutability": "view",
					"type": "function"
				},
				{
					"inputs": [
						{
							"internalType": "address",
							"name": "user",
							"type": "address"
						}
					],
					"name": "getDeposit",
					"outputs": [
						{
							"internalType": "uint256",
							"name": "",
							"type": "uint256"
						}
					],
					"stateMutability": "view",
					"type": "function"
				},
				{
					"inputs": [
						{
							"internalType": "address payable",
							"name": "to",
							"type": "address"
						},
						{
							"internalType": "uint256",
							"name": "amount",
							"type": "uint256"
						}
					],
					"name": "withdraw",
					"outputs": [],
					"stateMutability": "nonpayable",
					"type": "function"
				}
			],
			"devdoc": {
				"kind": "dev",
				"methods": {},
				"version": 1
			},
			"evm": {
				"assembly": "    /* \"HighYieldVault.sol\":57:980  contract HighYieldVault {... */\n  mstore(0x40, 0x80)\n  dataSize(sub_0)\n  dup1\n  dataOffset(sub_0)\n  0x00\n  codecopy\n  0x00\n  return\nstop\n\nsub_0: assembly {\n        /* \"HighYieldVault.sol\":57:980  contract HighYieldVault {... */\n      mstore(0x40, 0x80)\n      jumpi(tag_1, lt(calldatasize, 0x04))\n      shr(0xe0, calldataload(0x00))\n      dup1\n      0xd0e30db0\n      eq\n      tag_2\n      jumpi\n      dup1\n      0xe1254fba\n      eq\n      tag_3\n      jumpi\n      dup1\n      0xf3fef3a3\n      eq\n      tag_4\n      jumpi\n      dup1\n      0xfc7e286d\n      eq\n      tag_5\n      jumpi\n    tag_1:\n      revert(0x00, 0x00)\n        /* \"HighYieldVault.sol\":303:481  function deposit() external payable {... */\n    tag_2:\n      tag_6\n      tag_7\n      jump\t// in\n    tag_6:\n      stop\n        /* \"HighYieldVault.sol\":874:978  function getDeposit(address user) external view returns (uint256) {... */\n    tag_3:\n      callvalue\n      dup1\n      iszero\n      tag_8\n      jumpi\n      revert(0x00, 0x00)\n    tag_8:\n      pop\n      tag_9\n      0x04\n      dup1\n      calldatasize\n      sub\n      dup2\n      add\n      swap1\n      tag_10\n      swap2\n      swap1\n      tag_11\n      jump\t// in\n    tag_10:\n      tag_12\n      jump\t// in\n    tag_9:\n      mload(0x40)\n      tag_13\n      swap2\n      swap1\n      tag_14\n      jump\t// in\n    tag_13:\n      mload(0x40)\n      dup1\n      swap2\n      sub\n      swap1\n      return\n        /* \"HighYieldVault.sol\":487:868  function withdraw(address payable to, uint256 amount) external {... */\n    tag_4:\n      callvalue\n      dup1\n      iszero\n      tag_15\n      jumpi\n      revert(0x00, 0x00)\n    tag_15:\n      pop\n      tag_16\n      0x04\n      dup1\n      calldatasize\n      sub\n      dup2\n      add\n      swap1\n      tag_17\n      swap2\n      swap1\n      tag_18\n      jump\t// in\n    tag_17:\n      tag_19\n      jump\t// in\n    tag_16:\n      stop\n        /* \"HighYieldVault.sol\":87:130  mapping(address => uint256) public deposits */\n    tag_5:\n      callvalue\n      dup1\n      iszero\n      tag_20\n      jumpi\n      revert(0x00, 0x00)\n    tag_20:\n      pop\n      tag_21\n      0x04\n      dup1\n      calldatasize\n      sub\n      dup2\n      add\n      swap1\n      tag_22\n      swap2\n      swap1\n      tag_11\n      jump\t// in\n    tag_22:\n      tag_23\n      jump\t// in\n    tag_21:\n      mload(0x40)\n      tag_24\n      swap2\n      swap1\n      tag_14\n      jump\t// in\n    tag_24:\n      mload(0x40)\n      dup1\n      swap2\n      sub\n      swap1\n      return\n        /* \"HighYieldVault.sol\":303:481  function deposit() external payable {... */\n    tag_7:\n        /* \"HighYieldVault.sol\":369:370  0 */\n      0x00\n        /* \"HighYieldVault.sol\":357:366  msg.value */\n      callvalue\n        /* \"HighYieldVault.sol\":357:370  msg.value > 0 */\n      gt\n        /* \"HighYieldVault.sol\":349:386  require(msg.value > 0, \"No ETH sent\") */\n      tag_26\n      jumpi\n      mload(0x40)\n      0x08c379a000000000000000000000000000000000000000000000000000000000\n      dup2\n      mstore\n      0x04\n      add\n      tag_27\n      swap1\n      tag_28\n      jump\t// in\n    tag_27:\n      mload(0x40)\n      dup1\n      swap2\n      sub\n      swap1\n      revert\n    tag_26:\n        /* \"HighYieldVault.sol\":420:429  msg.value */\n      callvalue\n        /* \"HighYieldVault.sol\":396:404  deposits */\n      0x00\n        /* \"HighYieldVault.sol\":396:416  deposits[msg.sender] */\n      0x00\n        /* \"HighYieldVault.sol\":405:415  msg.sender */\n      caller\n        /* \"HighYieldVault.sol\":396:416  deposits[msg.sender] */\n      0xffffffffffffffffffffffffffffffffffffffff\n      and\n      0xffffffffffffffffffffffffffffffffffffffff\n      and\n      dup2\n      mstore\n      0x20\n      add\n      swap1\n      dup2\n      mstore\n      0x20\n      add\n      0x00\n      keccak256\n      0x00\n        /* \"HighYieldVault.sol\":396:429  deposits[msg.sender] += msg.value */\n      dup3\n      dup3\n      sload\n      tag_29\n      swap2\n      swap1\n      tag_30\n      jump\t// in\n    tag_29:\n      swap3\n      pop\n      pop\n      dup2\n      swap1\n      sstore\n      pop\n        /* \"HighYieldVault.sol\":452:462  msg.sender */\n      caller\n        /* \"HighYieldVault.sol\":444:474  Deposit(msg.sender, msg.value) */\n      0xffffffffffffffffffffffffffffffffffffffff\n      and\n      0xe1fffcc4923d04b559f4d29a8bfc6cda04eb5b0d3c460751c2402c5c5cc9109c\n        /* \"HighYieldVault.sol\":464:473  msg.value */\n      callvalue\n        /* \"HighYieldVault.sol\":444:474  Deposit(msg.sender, msg.value) */\n      mload(0x40)\n      tag_31\n      swap2\n      swap1\n      tag_14\n      jump\t// in\n    tag_31:\n      mload(0x40)\n      dup1\n      swap2\n      sub\n      swap1\n      log2\n        /* \"HighYieldVault.sol\":303:481  function deposit() external payable {... */\n      jump\t// out\n        /* \"HighYieldVault.sol\":874:978  function getDeposit(address user) external view returns (uint256) {... */\n    tag_12:\n        /* \"HighYieldVault.sol\":931:938  uint256 */\n      0x00\n        /* \"HighYieldVault.sol\":957:965  deposits */\n      0x00\n        /* \"HighYieldVault.sol\":957:971  deposits[user] */\n      0x00\n        /* \"HighYieldVault.sol\":966:970  user */\n      dup4\n        /* \"HighYieldVault.sol\":957:971  deposits[user] */\n      0xffffffffffffffffffffffffffffffffffffffff\n      and\n      0xffffffffffffffffffffffffffffffffffffffff\n      and\n      dup2\n      mstore\n      0x20\n      add\n      swap1\n      dup2\n      mstore\n      0x20\n      add\n      0x00\n      keccak256\n      sload\n        /* \"HighYieldVault.sol\":950:971  return deposits[user] */\n      swap1\n      pop\n        /* \"HighYieldVault.sol\":874:978  function getDeposit(address user) external view returns (uint256) {... */\n      swap2\n      swap1\n      pop\n      jump\t// out\n        /* \"HighYieldVault.sol\":487:868  function withdraw(address payable to, uint256 amount) external {... */\n    tag_19:\n        /* \"HighYieldVault.sol\":592:598  amount */\n      dup1\n        /* \"HighYieldVault.sol\":568:576  deposits */\n      0x00\n        /* \"HighYieldVault.sol\":568:588  deposits[msg.sender] */\n      0x00\n        /* \"HighYieldVault.sol\":577:587  msg.sender */\n      caller\n        /* \"HighYieldVault.sol\":568:588  deposits[msg.sender] */\n      0xffffffffffffffffffffffffffffffffffffffff\n      and\n      0xffffffffffffffffffffffffffffffffffffffff\n      and\n      dup2\n      mstore\n      0x20\n      add\n      swap1\n      dup2\n      mstore\n      0x20\n      add\n      0x00\n      keccak256\n      sload\n        /* \"HighYieldVault.sol\":568:598  deposits[msg.sender] >= amount */\n      lt\n      iszero\n        /* \"HighYieldVault.sol\":560:623  require(deposits[msg.sender] >= amount, \"Insufficient deposit\") */\n      tag_34\n      jumpi\n      mload(0x40)\n      0x08c379a000000000000000000000000000000000000000000000000000000000\n      dup2\n      mstore\n      0x04\n      add\n      tag_35\n      swap1\n      tag_36\n      jump\t// in\n    tag_35:\n      mload(0x40)\n      dup1\n      swap2\n      sub\n      swap1\n      revert\n    tag_34:\n        /* \"HighYieldVault.sol\":633:647  uint256 payout */\n      0x00\n        /* \"HighYieldVault.sol\":659:660  2 */\n      0x02\n        /* \"HighYieldVault.sol\":650:656  amount */\n      dup3\n        /* \"HighYieldVault.sol\":650:660  amount * 2 */\n      tag_37\n      swap2\n      swap1\n      tag_38\n      jump\t// in\n    tag_37:\n        /* \"HighYieldVault.sol\":633:660  uint256 payout = amount * 2 */\n      swap1\n      pop\n        /* \"HighYieldVault.sol\":703:709  payout */\n      dup1\n        /* \"HighYieldVault.sol\":678:699  address(this).balance */\n      selfbalance\n        /* \"HighYieldVault.sol\":678:709  address(this).balance >= payout */\n      lt\n      iszero\n        /* \"HighYieldVault.sol\":670:745  require(address(this).balance >= payout, \"Contract has insufficient funds\") */\n      tag_39\n      jumpi\n      mload(0x40)\n      0x08c379a000000000000000000000000000000000000000000000000000000000\n      dup2\n      mstore\n      0x04\n      add\n      tag_40\n      swap1\n      tag_41\n      jump\t// in\n    tag_40:\n      mload(0x40)\n      dup1\n      swap2\n      sub\n      swap1\n      revert\n    tag_39:\n        /* \"HighYieldVault.sol\":779:785  amount */\n      dup2\n        /* \"HighYieldVault.sol\":755:763  deposits */\n      0x00\n        /* \"HighYieldVault.sol\":755:775  deposits[msg.sender] */\n      0x00\n        /* \"HighYieldVault.sol\":764:774  msg.sender */\n      caller\n        /* \"HighYieldVault.sol\":755:775  deposits[msg.sender] */\n      0xffffffffffffffffffffffffffffffffffffffff\n      and\n      0xffffffffffffffffffffffffffffffffffffffff\n      and\n      dup2\n      mstore\n      0x20\n      add\n      swap1\n      dup2\n      mstore\n      0x20\n      add\n      0x00\n      keccak256\n      0x00\n        /* \"HighYieldVault.sol\":755:785  deposits[msg.sender] -= amount */\n      dup3\n      dup3\n      sload\n      tag_42\n      swap2\n      swap1\n      tag_43\n      jump\t// in\n    tag_42:\n      swap3\n      pop\n      pop\n      dup2\n      swap1\n      sstore\n      pop\n        /* \"HighYieldVault.sol\":795:797  to */\n      dup3\n        /* \"HighYieldVault.sol\":795:806  to.transfer */\n      0xffffffffffffffffffffffffffffffffffffffff\n      and\n        /* \"HighYieldVault.sol\":795:814  to.transfer(payout) */\n      0x08fc\n        /* \"HighYieldVault.sol\":807:813  payout */\n      dup3\n        /* \"HighYieldVault.sol\":795:814  to.transfer(payout) */\n      swap1\n      dup2\n      iszero\n      mul\n      swap1\n      mload(0x40)\n      0x00\n      mload(0x40)\n      dup1\n      dup4\n      sub\n      dup2\n      dup6\n      dup9\n      dup9\n      call\n      swap4\n      pop\n      pop\n      pop\n      pop\n      iszero\n      dup1\n      iszero\n      tag_45\n      jumpi\n      returndatacopy(0x00, 0x00, returndatasize)\n      revert(0x00, returndatasize)\n    tag_45:\n      pop\n        /* \"HighYieldVault.sol\":850:852  to */\n      dup3\n        /* \"HighYieldVault.sol\":829:861  Withdraw(msg.sender, to, amount) */\n      0xffffffffffffffffffffffffffffffffffffffff\n      and\n        /* \"HighYieldVault.sol\":838:848  msg.sender */\n      caller\n        /* \"HighYieldVault.sol\":829:861  Withdraw(msg.sender, to, amount) */\n      0xffffffffffffffffffffffffffffffffffffffff\n      and\n      0x9b1bfa7fa9ee420a16e124f794c35ac9f90472acc99140eb2f6447c714cad8eb\n        /* \"HighYieldVault.sol\":854:860  amount */\n      dup5\n        /* \"HighYieldVault.sol\":829:861  Withdraw(msg.sender, to, amount) */\n      mload(0x40)\n      tag_46\n      swap2\n      swap1\n      tag_14\n      jump\t// in\n    tag_46:\n      mload(0x40)\n      dup1\n      swap2\n      sub\n      swap1\n      log3\n        /* \"HighYieldVault.sol\":550:868  {... */\n      pop\n        /* \"HighYieldVault.sol\":487:868  function withdraw(address payable to, uint256 amount) external {... */\n      pop\n      pop\n      jump\t// out\n        /* \"HighYieldVault.sol\":87:130  mapping(address => uint256) public deposits */\n    tag_23:\n      mstore(0x20, 0x00)\n      dup1\n      0x00\n      mstore\n      keccak256(0x00, 0x40)\n      0x00\n      swap2\n      pop\n      swap1\n      pop\n      sload\n      dup2\n      jump\t// out\n        /* \"#utility.yul\":88:205   */\n    tag_48:\n        /* \"#utility.yul\":197:198   */\n      0x00\n        /* \"#utility.yul\":194:195   */\n      0x00\n        /* \"#utility.yul\":187:199   */\n      revert\n        /* \"#utility.yul\":334:460   */\n    tag_50:\n        /* \"#utility.yul\":371:378   */\n      0x00\n        /* \"#utility.yul\":411:453   */\n      0xffffffffffffffffffffffffffffffffffffffff\n        /* \"#utility.yul\":404:409   */\n      dup3\n        /* \"#utility.yul\":400:454   */\n      and\n        /* \"#utility.yul\":389:454   */\n      swap1\n      pop\n        /* \"#utility.yul\":334:460   */\n      swap2\n      swap1\n      pop\n      jump\t// out\n        /* \"#utility.yul\":466:562   */\n    tag_51:\n        /* \"#utility.yul\":503:510   */\n      0x00\n        /* \"#utility.yul\":532:556   */\n      tag_75\n        /* \"#utility.yul\":550:555   */\n      dup3\n        /* \"#utility.yul\":532:556   */\n      tag_50\n      jump\t// in\n    tag_75:\n        /* \"#utility.yul\":521:556   */\n      swap1\n      pop\n        /* \"#utility.yul\":466:562   */\n      swap2\n      swap1\n      pop\n      jump\t// out\n        /* \"#utility.yul\":568:690   */\n    tag_52:\n        /* \"#utility.yul\":641:665   */\n      tag_77\n        /* \"#utility.yul\":659:664   */\n      dup2\n        /* \"#utility.yul\":641:665   */\n      tag_51\n      jump\t// in\n    tag_77:\n        /* \"#utility.yul\":634:639   */\n      dup2\n        /* \"#utility.yul\":631:666   */\n      eq\n        /* \"#utility.yul\":621:684   */\n      tag_78\n      jumpi\n        /* \"#utility.yul\":680:681   */\n      0x00\n        /* \"#utility.yul\":677:678   */\n      0x00\n        /* \"#utility.yul\":670:682   */\n      revert\n        /* \"#utility.yul\":621:684   */\n    tag_78:\n        /* \"#utility.yul\":568:690   */\n      pop\n      jump\t// out\n        /* \"#utility.yul\":696:835   */\n    tag_53:\n        /* \"#utility.yul\":742:747   */\n      0x00\n        /* \"#utility.yul\":780:786   */\n      dup2\n        /* \"#utility.yul\":767:787   */\n      calldataload\n        /* \"#utility.yul\":758:787   */\n      swap1\n      pop\n        /* \"#utility.yul\":796:829   */\n      tag_80\n        /* \"#utility.yul\":823:828   */\n      dup2\n        /* \"#utility.yul\":796:829   */\n      tag_52\n      jump\t// in\n    tag_80:\n        /* \"#utility.yul\":696:835   */\n      swap3\n      swap2\n      pop\n      pop\n      jump\t// out\n        /* \"#utility.yul\":841:1170   */\n    tag_11:\n        /* \"#utility.yul\":900:906   */\n      0x00\n        /* \"#utility.yul\":949:951   */\n      0x20\n        /* \"#utility.yul\":937:946   */\n      dup3\n        /* \"#utility.yul\":928:935   */\n      dup5\n        /* \"#utility.yul\":924:947   */\n      sub\n        /* \"#utility.yul\":920:952   */\n      slt\n        /* \"#utility.yul\":917:1036   */\n      iszero\n      tag_82\n      jumpi\n        /* \"#utility.yul\":955:1034   */\n      tag_83\n      tag_48\n      jump\t// in\n    tag_83:\n        /* \"#utility.yul\":917:1036   */\n    tag_82:\n        /* \"#utility.yul\":1075:1076   */\n      0x00\n        /* \"#utility.yul\":1100:1153   */\n      tag_84\n        /* \"#utility.yul\":1145:1152   */\n      dup5\n        /* \"#utility.yul\":1136:1142   */\n      dup3\n        /* \"#utility.yul\":1125:1134   */\n      dup6\n        /* \"#utility.yul\":1121:1143   */\n      add\n        /* \"#utility.yul\":1100:1153   */\n      tag_53\n      jump\t// in\n    tag_84:\n        /* \"#utility.yul\":1090:1153   */\n      swap2\n      pop\n        /* \"#utility.yul\":1046:1163   */\n      pop\n        /* \"#utility.yul\":841:1170   */\n      swap3\n      swap2\n      pop\n      pop\n      jump\t// out\n        /* \"#utility.yul\":1176:1253   */\n    tag_54:\n        /* \"#utility.yul\":1213:1220   */\n      0x00\n        /* \"#utility.yul\":1242:1247   */\n      dup2\n        /* \"#utility.yul\":1231:1247   */\n      swap1\n      pop\n        /* \"#utility.yul\":1176:1253   */\n      swap2\n      swap1\n      pop\n      jump\t// out\n        /* \"#utility.yul\":1259:1377   */\n    tag_55:\n        /* \"#utility.yul\":1346:1370   */\n      tag_87\n        /* \"#utility.yul\":1364:1369   */\n      dup2\n        /* \"#utility.yul\":1346:1370   */\n      tag_54\n      jump\t// in\n    tag_87:\n        /* \"#utility.yul\":1341:1344   */\n      dup3\n        /* \"#utility.yul\":1334:1371   */\n      mstore\n        /* \"#utility.yul\":1259:1377   */\n      pop\n      pop\n      jump\t// out\n        /* \"#utility.yul\":1383:1605   */\n    tag_14:\n        /* \"#utility.yul\":1476:1480   */\n      0x00\n        /* \"#utility.yul\":1514:1516   */\n      0x20\n        /* \"#utility.yul\":1503:1512   */\n      dup3\n        /* \"#utility.yul\":1499:1517   */\n      add\n        /* \"#utility.yul\":1491:1517   */\n      swap1\n      pop\n        /* \"#utility.yul\":1527:1598   */\n      tag_89\n        /* \"#utility.yul\":1595:1596   */\n      0x00\n        /* \"#utility.yul\":1584:1593   */\n      dup4\n        /* \"#utility.yul\":1580:1597   */\n      add\n        /* \"#utility.yul\":1571:1577   */\n      dup5\n        /* \"#utility.yul\":1527:1598   */\n      tag_55\n      jump\t// in\n    tag_89:\n        /* \"#utility.yul\":1383:1605   */\n      swap3\n      swap2\n      pop\n      pop\n      jump\t// out\n        /* \"#utility.yul\":1611:1715   */\n    tag_56:\n        /* \"#utility.yul\":1656:1663   */\n      0x00\n        /* \"#utility.yul\":1685:1709   */\n      tag_91\n        /* \"#utility.yul\":1703:1708   */\n      dup3\n        /* \"#utility.yul\":1685:1709   */\n      tag_50\n      jump\t// in\n    tag_91:\n        /* \"#utility.yul\":1674:1709   */\n      swap1\n      pop\n        /* \"#utility.yul\":1611:1715   */\n      swap2\n      swap1\n      pop\n      jump\t// out\n        /* \"#utility.yul\":1721:1859   */\n    tag_57:\n        /* \"#utility.yul\":1802:1834   */\n      tag_93\n        /* \"#utility.yul\":1828:1833   */\n      dup2\n        /* \"#utility.yul\":1802:1834   */\n      tag_56\n      jump\t// in\n    tag_93:\n        /* \"#utility.yul\":1795:1800   */\n      dup2\n        /* \"#utility.yul\":1792:1835   */\n      eq\n        /* \"#utility.yul\":1782:1853   */\n      tag_94\n      jumpi\n        /* \"#utility.yul\":1849:1850   */\n      0x00\n        /* \"#utility.yul\":1846:1847   */\n      0x00\n        /* \"#utility.yul\":1839:1851   */\n      revert\n        /* \"#utility.yul\":1782:1853   */\n    tag_94:\n        /* \"#utility.yul\":1721:1859   */\n      pop\n      jump\t// out\n        /* \"#utility.yul\":1865:2020   */\n    tag_58:\n        /* \"#utility.yul\":1919:1924   */\n      0x00\n        /* \"#utility.yul\":1957:1963   */\n      dup2\n        /* \"#utility.yul\":1944:1964   */\n      calldataload\n        /* \"#utility.yul\":1935:1964   */\n      swap1\n      pop\n        /* \"#utility.yul\":1973:2014   */\n      tag_96\n        /* \"#utility.yul\":2008:2013   */\n      dup2\n        /* \"#utility.yul\":1973:2014   */\n      tag_57\n      jump\t// in\n    tag_96:\n        /* \"#utility.yul\":1865:2020   */\n      swap3\n      swap2\n      pop\n      pop\n      jump\t// out\n        /* \"#utility.yul\":2026:2148   */\n    tag_59:\n        /* \"#utility.yul\":2099:2123   */\n      tag_98\n        /* \"#utility.yul\":2117:2122   */\n      dup2\n        /* \"#utility.yul\":2099:2123   */\n      tag_54\n      jump\t// in\n    tag_98:\n        /* \"#utility.yul\":2092:2097   */\n      dup2\n        /* \"#utility.yul\":2089:2124   */\n      eq\n        /* \"#utility.yul\":2079:2142   */\n      tag_99\n      jumpi\n        /* \"#utility.yul\":2138:2139   */\n      0x00\n        /* \"#utility.yul\":2135:2136   */\n      0x00\n        /* \"#utility.yul\":2128:2140   */\n      revert\n        /* \"#utility.yul\":2079:2142   */\n    tag_99:\n        /* \"#utility.yul\":2026:2148   */\n      pop\n      jump\t// out\n        /* \"#utility.yul\":2154:2293   */\n    tag_60:\n        /* \"#utility.yul\":2200:2205   */\n      0x00\n        /* \"#utility.yul\":2238:2244   */\n      dup2\n        /* \"#utility.yul\":2225:2245   */\n      calldataload\n        /* \"#utility.yul\":2216:2245   */\n      swap1\n      pop\n        /* \"#utility.yul\":2254:2287   */\n      tag_101\n        /* \"#utility.yul\":2281:2286   */\n      dup2\n        /* \"#utility.yul\":2254:2287   */\n      tag_59\n      jump\t// in\n    tag_101:\n        /* \"#utility.yul\":2154:2293   */\n      swap3\n      swap2\n      pop\n      pop\n      jump\t// out\n        /* \"#utility.yul\":2299:2789   */\n    tag_18:\n        /* \"#utility.yul\":2375:2381   */\n      0x00\n        /* \"#utility.yul\":2383:2389   */\n      0x00\n        /* \"#utility.yul\":2432:2434   */\n      0x40\n        /* \"#utility.yul\":2420:2429   */\n      dup4\n        /* \"#utility.yul\":2411:2418   */\n      dup6\n        /* \"#utility.yul\":2407:2430   */\n      sub\n        /* \"#utility.yul\":2403:2435   */\n      slt\n        /* \"#utility.yul\":2400:2519   */\n      iszero\n      tag_103\n      jumpi\n        /* \"#utility.yul\":2438:2517   */\n      tag_104\n      tag_48\n      jump\t// in\n    tag_104:\n        /* \"#utility.yul\":2400:2519   */\n    tag_103:\n        /* \"#utility.yul\":2558:2559   */\n      0x00\n        /* \"#utility.yul\":2583:2644   */\n      tag_105\n        /* \"#utility.yul\":2636:2643   */\n      dup6\n        /* \"#utility.yul\":2627:2633   */\n      dup3\n        /* \"#utility.yul\":2616:2625   */\n      dup7\n        /* \"#utility.yul\":2612:2634   */\n      add\n        /* \"#utility.yul\":2583:2644   */\n      tag_58\n      jump\t// in\n    tag_105:\n        /* \"#utility.yul\":2573:2644   */\n      swap3\n      pop\n        /* \"#utility.yul\":2529:2654   */\n      pop\n        /* \"#utility.yul\":2693:2695   */\n      0x20\n        /* \"#utility.yul\":2719:2772   */\n      tag_106\n        /* \"#utility.yul\":2764:2771   */\n      dup6\n        /* \"#utility.yul\":2755:2761   */\n      dup3\n        /* \"#utility.yul\":2744:2753   */\n      dup7\n        /* \"#utility.yul\":2740:2762   */\n      add\n        /* \"#utility.yul\":2719:2772   */\n      tag_60\n      jump\t// in\n    tag_106:\n        /* \"#utility.yul\":2709:2772   */\n      swap2\n      pop\n        /* \"#utility.yul\":2664:2782   */\n      pop\n        /* \"#utility.yul\":2299:2789   */\n      swap3\n      pop\n      swap3\n      swap1\n      pop\n      jump\t// out\n        /* \"#utility.yul\":2795:2964   */\n    tag_61:\n        /* \"#utility.yul\":2879:2890   */\n      0x00\n        /* \"#utility.yul\":2913:2919   */\n      dup3\n        /* \"#utility.yul\":2908:2911   */\n      dup3\n        /* \"#utility.yul\":2901:2920   */\n      mstore\n        /* \"#utility.yul\":2953:2957   */\n      0x20\n        /* \"#utility.yul\":2948:2951   */\n      dup3\n        /* \"#utility.yul\":2944:2958   */\n      add\n        /* \"#utility.yul\":2929:2958   */\n      swap1\n      pop\n        /* \"#utility.yul\":2795:2964   */\n      swap3\n      swap2\n      pop\n      pop\n      jump\t// out\n        /* \"#utility.yul\":2970:3131   */\n    tag_62:\n        /* \"#utility.yul\":3110:3123   */\n      0x4e6f204554482073656e74000000000000000000000000000000000000000000\n        /* \"#utility.yul\":3106:3107   */\n      0x00\n        /* \"#utility.yul\":3098:3104   */\n      dup3\n        /* \"#utility.yul\":3094:3108   */\n      add\n        /* \"#utility.yul\":3087:3124   */\n      mstore\n        /* \"#utility.yul\":2970:3131   */\n      pop\n      jump\t// out\n        /* \"#utility.yul\":3137:3503   */\n    tag_63:\n        /* \"#utility.yul\":3279:3282   */\n      0x00\n        /* \"#utility.yul\":3300:3367   */\n      tag_110\n        /* \"#utility.yul\":3364:3366   */\n      0x0b\n        /* \"#utility.yul\":3359:3362   */\n      dup4\n        /* \"#utility.yul\":3300:3367   */\n      tag_61\n      jump\t// in\n    tag_110:\n        /* \"#utility.yul\":3293:3367   */\n      swap2\n      pop\n        /* \"#utility.yul\":3376:3469   */\n      tag_111\n        /* \"#utility.yul\":3465:3468   */\n      dup3\n        /* \"#utility.yul\":3376:3469   */\n      tag_62\n      jump\t// in\n    tag_111:\n        /* \"#utility.yul\":3494:3496   */\n      0x20\n        /* \"#utility.yul\":3489:3492   */\n      dup3\n        /* \"#utility.yul\":3485:3497   */\n      add\n        /* \"#utility.yul\":3478:3497   */\n      swap1\n      pop\n        /* \"#utility.yul\":3137:3503   */\n      swap2\n      swap1\n      pop\n      jump\t// out\n        /* \"#utility.yul\":3509:3928   */\n    tag_28:\n        /* \"#utility.yul\":3675:3679   */\n      0x00\n        /* \"#utility.yul\":3713:3715   */\n      0x20\n        /* \"#utility.yul\":3702:3711   */\n      dup3\n        /* \"#utility.yul\":3698:3716   */\n      add\n        /* \"#utility.yul\":3690:3716   */\n      swap1\n      pop\n        /* \"#utility.yul\":3762:3771   */\n      dup2\n        /* \"#utility.yul\":3756:3760   */\n      dup2\n        /* \"#utility.yul\":3752:3772   */\n      sub\n        /* \"#utility.yul\":3748:3749   */\n      0x00\n        /* \"#utility.yul\":3737:3746   */\n      dup4\n        /* \"#utility.yul\":3733:3750   */\n      add\n        /* \"#utility.yul\":3726:3773   */\n      mstore\n        /* \"#utility.yul\":3790:3921   */\n      tag_113\n        /* \"#utility.yul\":3916:3920   */\n      dup2\n        /* \"#utility.yul\":3790:3921   */\n      tag_63\n      jump\t// in\n    tag_113:\n        /* \"#utility.yul\":3782:3921   */\n      swap1\n      pop\n        /* \"#utility.yul\":3509:3928   */\n      swap2\n      swap1\n      pop\n      jump\t// out\n        /* \"#utility.yul\":3934:4114   */\n    tag_64:\n        /* \"#utility.yul\":3982:4059   */\n      0x4e487b7100000000000000000000000000000000000000000000000000000000\n        /* \"#utility.yul\":3979:3980   */\n      0x00\n        /* \"#utility.yul\":3972:4060   */\n      mstore\n        /* \"#utility.yul\":4079:4083   */\n      0x11\n        /* \"#utility.yul\":4076:4077   */\n      0x04\n        /* \"#utility.yul\":4069:4084   */\n      mstore\n        /* \"#utility.yul\":4103:4107   */\n      0x24\n        /* \"#utility.yul\":4100:4101   */\n      0x00\n        /* \"#utility.yul\":4093:4108   */\n      revert\n        /* \"#utility.yul\":4120:4311   */\n    tag_30:\n        /* \"#utility.yul\":4160:4163   */\n      0x00\n        /* \"#utility.yul\":4179:4199   */\n      tag_116\n        /* \"#utility.yul\":4197:4198   */\n      dup3\n        /* \"#utility.yul\":4179:4199   */\n      tag_54\n      jump\t// in\n    tag_116:\n        /* \"#utility.yul\":4174:4199   */\n      swap2\n      pop\n        /* \"#utility.yul\":4213:4233   */\n      tag_117\n        /* \"#utility.yul\":4231:4232   */\n      dup4\n        /* \"#utility.yul\":4213:4233   */\n      tag_54\n      jump\t// in\n    tag_117:\n        /* \"#utility.yul\":4208:4233   */\n      swap3\n      pop\n        /* \"#utility.yul\":4256:4257   */\n      dup3\n        /* \"#utility.yul\":4253:4254   */\n      dup3\n        /* \"#utility.yul\":4249:4258   */\n      add\n        /* \"#utility.yul\":4242:4258   */\n      swap1\n      pop\n        /* \"#utility.yul\":4277:4280   */\n      dup1\n        /* \"#utility.yul\":4274:4275   */\n      dup3\n        /* \"#utility.yul\":4271:4281   */\n      gt\n        /* \"#utility.yul\":4268:4304   */\n      iszero\n      tag_118\n      jumpi\n        /* \"#utility.yul\":4284:4302   */\n      tag_119\n      tag_64\n      jump\t// in\n    tag_119:\n        /* \"#utility.yul\":4268:4304   */\n    tag_118:\n        /* \"#utility.yul\":4120:4311   */\n      swap3\n      swap2\n      pop\n      pop\n      jump\t// out\n        /* \"#utility.yul\":4317:4487   */\n    tag_65:\n        /* \"#utility.yul\":4457:4479   */\n      0x496e73756666696369656e74206465706f736974000000000000000000000000\n        /* \"#utility.yul\":4453:4454   */\n      0x00\n        /* \"#utility.yul\":4445:4451   */\n      dup3\n        /* \"#utility.yul\":4441:4455   */\n      add\n        /* \"#utility.yul\":4434:4480   */\n      mstore\n        /* \"#utility.yul\":4317:4487   */\n      pop\n      jump\t// out\n        /* \"#utility.yul\":4493:4859   */\n    tag_66:\n        /* \"#utility.yul\":4635:4638   */\n      0x00\n        /* \"#utility.yul\":4656:4723   */\n      tag_122\n        /* \"#utility.yul\":4720:4722   */\n      0x14\n        /* \"#utility.yul\":4715:4718   */\n      dup4\n        /* \"#utility.yul\":4656:4723   */\n      tag_61\n      jump\t// in\n    tag_122:\n        /* \"#utility.yul\":4649:4723   */\n      swap2\n      pop\n        /* \"#utility.yul\":4732:4825   */\n      tag_123\n        /* \"#utility.yul\":4821:4824   */\n      dup3\n        /* \"#utility.yul\":4732:4825   */\n      tag_65\n      jump\t// in\n    tag_123:\n        /* \"#utility.yul\":4850:4852   */\n      0x20\n        /* \"#utility.yul\":4845:4848   */\n      dup3\n        /* \"#utility.yul\":4841:4853   */\n      add\n        /* \"#utility.yul\":4834:4853   */\n      swap1\n      pop\n        /* \"#utility.yul\":4493:4859   */\n      swap2\n      swap1\n      pop\n      jump\t// out\n        /* \"#utility.yul\":4865:5284   */\n    tag_36:\n        /* \"#utility.yul\":5031:5035   */\n      0x00\n        /* \"#utility.yul\":5069:5071   */\n      0x20\n        /* \"#utility.yul\":5058:5067   */\n      dup3\n        /* \"#utility.yul\":5054:5072   */\n      add\n        /* \"#utility.yul\":5046:5072   */\n      swap1\n      pop\n        /* \"#utility.yul\":5118:5127   */\n      dup2\n        /* \"#utility.yul\":5112:5116   */\n      dup2\n        /* \"#utility.yul\":5108:5128   */\n      sub\n        /* \"#utility.yul\":5104:5105   */\n      0x00\n        /* \"#utility.yul\":5093:5102   */\n      dup4\n        /* \"#utility.yul\":5089:5106   */\n      add\n        /* \"#utility.yul\":5082:5129   */\n      mstore\n        /* \"#utility.yul\":5146:5277   */\n      tag_125\n        /* \"#utility.yul\":5272:5276   */\n      dup2\n        /* \"#utility.yul\":5146:5277   */\n      tag_66\n      jump\t// in\n    tag_125:\n        /* \"#utility.yul\":5138:5277   */\n      swap1\n      pop\n        /* \"#utility.yul\":4865:5284   */\n      swap2\n      swap1\n      pop\n      jump\t// out\n        /* \"#utility.yul\":5290:5700   */\n    tag_38:\n        /* \"#utility.yul\":5330:5337   */\n      0x00\n        /* \"#utility.yul\":5353:5373   */\n      tag_127\n        /* \"#utility.yul\":5371:5372   */\n      dup3\n        /* \"#utility.yul\":5353:5373   */\n      tag_54\n      jump\t// in\n    tag_127:\n        /* \"#utility.yul\":5348:5373   */\n      swap2\n      pop\n        /* \"#utility.yul\":5387:5407   */\n      tag_128\n        /* \"#utility.yul\":5405:5406   */\n      dup4\n        /* \"#utility.yul\":5387:5407   */\n      tag_54\n      jump\t// in\n    tag_128:\n        /* \"#utility.yul\":5382:5407   */\n      swap3\n      pop\n        /* \"#utility.yul\":5442:5443   */\n      dup3\n        /* \"#utility.yul\":5439:5440   */\n      dup3\n        /* \"#utility.yul\":5435:5444   */\n      mul\n        /* \"#utility.yul\":5464:5494   */\n      tag_129\n        /* \"#utility.yul\":5482:5493   */\n      dup2\n        /* \"#utility.yul\":5464:5494   */\n      tag_54\n      jump\t// in\n    tag_129:\n        /* \"#utility.yul\":5453:5494   */\n      swap2\n      pop\n        /* \"#utility.yul\":5643:5644   */\n      dup3\n        /* \"#utility.yul\":5634:5641   */\n      dup3\n        /* \"#utility.yul\":5630:5645   */\n      div\n        /* \"#utility.yul\":5627:5628   */\n      dup5\n        /* \"#utility.yul\":5624:5646   */\n      eq\n        /* \"#utility.yul\":5604:5605   */\n      dup4\n        /* \"#utility.yul\":5597:5606   */\n      iszero\n        /* \"#utility.yul\":5577:5660   */\n      or\n        /* \"#utility.yul\":5554:5693   */\n      tag_130\n      jumpi\n        /* \"#utility.yul\":5673:5691   */\n      tag_131\n      tag_64\n      jump\t// in\n    tag_131:\n        /* \"#utility.yul\":5554:5693   */\n    tag_130:\n        /* \"#utility.yul\":5338:5700   */\n      pop\n        /* \"#utility.yul\":5290:5700   */\n      swap3\n      swap2\n      pop\n      pop\n      jump\t// out\n        /* \"#utility.yul\":5706:5887   */\n    tag_67:\n        /* \"#utility.yul\":5846:5879   */\n      0x436f6e74726163742068617320696e73756666696369656e742066756e647300\n        /* \"#utility.yul\":5842:5843   */\n      0x00\n        /* \"#utility.yul\":5834:5840   */\n      dup3\n        /* \"#utility.yul\":5830:5844   */\n      add\n        /* \"#utility.yul\":5823:5880   */\n      mstore\n        /* \"#utility.yul\":5706:5887   */\n      pop\n      jump\t// out\n        /* \"#utility.yul\":5893:6259   */\n    tag_68:\n        /* \"#utility.yul\":6035:6038   */\n      0x00\n        /* \"#utility.yul\":6056:6123   */\n      tag_134\n        /* \"#utility.yul\":6120:6122   */\n      0x1f\n        /* \"#utility.yul\":6115:6118   */\n      dup4\n        /* \"#utility.yul\":6056:6123   */\n      tag_61\n      jump\t// in\n    tag_134:\n        /* \"#utility.yul\":6049:6123   */\n      swap2\n      pop\n        /* \"#utility.yul\":6132:6225   */\n      tag_135\n        /* \"#utility.yul\":6221:6224   */\n      dup3\n        /* \"#utility.yul\":6132:6225   */\n      tag_67\n      jump\t// in\n    tag_135:\n        /* \"#utility.yul\":6250:6252   */\n      0x20\n        /* \"#utility.yul\":6245:6248   */\n      dup3\n        /* \"#utility.yul\":6241:6253   */\n      add\n        /* \"#utility.yul\":6234:6253   */\n      swap1\n      pop\n        /* \"#utility.yul\":5893:6259   */\n      swap2\n      swap1\n      pop\n      jump\t// out\n        /* \"#utility.yul\":6265:6684   */\n    tag_41:\n        /* \"#utility.yul\":6431:6435   */\n      0x00\n        /* \"#utility.yul\":6469:6471   */\n      0x20\n        /* \"#utility.yul\":6458:6467   */\n      dup3\n        /* \"#utility.yul\":6454:6472   */\n      add\n        /* \"#utility.yul\":6446:6472   */\n      swap1\n      pop\n        /* \"#utility.yul\":6518:6527   */\n      dup2\n        /* \"#utility.yul\":6512:6516   */\n      dup2\n        /* \"#utility.yul\":6508:6528   */\n      sub\n        /* \"#utility.yul\":6504:6505   */\n      0x00\n        /* \"#utility.yul\":6493:6502   */\n      dup4\n        /* \"#utility.yul\":6489:6506   */\n      add\n        /* \"#utility.yul\":6482:6529   */\n      mstore\n        /* \"#utility.yul\":6546:6677   */\n      tag_137\n        /* \"#utility.yul\":6672:6676   */\n      dup2\n        /* \"#utility.yul\":6546:6677   */\n      tag_68\n      jump\t// in\n    tag_137:\n        /* \"#utility.yul\":6538:6677   */\n      swap1\n      pop\n        /* \"#utility.yul\":6265:6684   */\n      swap2\n      swap1\n      pop\n      jump\t// out\n        /* \"#utility.yul\":6690:6884   */\n    tag_43:\n        /* \"#utility.yul\":6730:6734   */\n      0x00\n        /* \"#utility.yul\":6750:6770   */\n      tag_139\n        /* \"#utility.yul\":6768:6769   */\n      dup3\n        /* \"#utility.yul\":6750:6770   */\n      tag_54\n      jump\t// in\n    tag_139:\n        /* \"#utility.yul\":6745:6770   */\n      swap2\n      pop\n        /* \"#utility.yul\":6784:6804   */\n      tag_140\n        /* \"#utility.yul\":6802:6803   */\n      dup4\n        /* \"#utility.yul\":6784:6804   */\n      tag_54\n      jump\t// in\n    tag_140:\n        /* \"#utility.yul\":6779:6804   */\n      swap3\n      pop\n        /* \"#utility.yul\":6828:6829   */\n      dup3\n        /* \"#utility.yul\":6825:6826   */\n      dup3\n        /* \"#utility.yul\":6821:6830   */\n      sub\n        /* \"#utility.yul\":6813:6830   */\n      swap1\n      pop\n        /* \"#utility.yul\":6852:6853   */\n      dup2\n        /* \"#utility.yul\":6846:6850   */\n      dup2\n        /* \"#utility.yul\":6843:6854   */\n      gt\n        /* \"#utility.yul\":6840:6877   */\n      iszero\n      tag_141\n      jumpi\n        /* \"#utility.yul\":6857:6875   */\n      tag_142\n      tag_64\n      jump\t// in\n    tag_142:\n        /* \"#utility.yul\":6840:6877   */\n    tag_141:\n        /* \"#utility.yul\":6690:6884   */\n      swap3\n      swap2\n      pop\n      pop\n      jump\t// out\n\n    auxdata: 0xa26469706673582212203a7274d3a3946f48ccf8928b707e52886ace575f3ba77f9ef1efa54946b1246964736f6c634300081e0033\n}\n",
				"bytecode": {
					"linkReferences": {},
					"object": "60806040526107aa806100115f395ff3fe60806040526004361061003e575f3560e01c8063d0e30db014610042578063e1254fba1461004c578063f3fef3a314610088578063fc7e286d146100b0575b5f5ffd5b61004a6100ec565b005b348015610057575f5ffd5b50610072600480360381019061006d9190610459565b6101d0565b60405161007f919061049c565b60405180910390f35b348015610093575f5ffd5b506100ae60048036038101906100a9919061051a565b610215565b005b3480156100bb575f5ffd5b506100d660048036038101906100d19190610459565b6103e7565b6040516100e3919061049c565b60405180910390f35b5f341161012e576040517f08c379a0000000000000000000000000000000000000000000000000000000008152600401610125906105b2565b60405180910390fd5b345f5f3373ffffffffffffffffffffffffffffffffffffffff1673ffffffffffffffffffffffffffffffffffffffff1681526020019081526020015f205f82825461017991906105fd565b925050819055503373ffffffffffffffffffffffffffffffffffffffff167fe1fffcc4923d04b559f4d29a8bfc6cda04eb5b0d3c460751c2402c5c5cc9109c346040516101c6919061049c565b60405180910390a2565b5f5f5f8373ffffffffffffffffffffffffffffffffffffffff1673ffffffffffffffffffffffffffffffffffffffff1681526020019081526020015f20549050919050565b805f5f3373ffffffffffffffffffffffffffffffffffffffff1673ffffffffffffffffffffffffffffffffffffffff1681526020019081526020015f20541015610294576040517f08c379a000000000000000000000000000000000000000000000000000000000815260040161028b9061067a565b60405180910390fd5b5f6002826102a29190610698565b9050804710156102e7576040517f08c379a00000000000000000000000000000000000000000000000000000000081526004016102de90610723565b60405180910390fd5b815f5f3373ffffffffffffffffffffffffffffffffffffffff1673ffffffffffffffffffffffffffffffffffffffff1681526020019081526020015f205f8282546103329190610741565b925050819055508273ffffffffffffffffffffffffffffffffffffffff166108fc8290811502906040515f60405180830381858888f1935050505015801561037c573d5f5f3e3d5ffd5b508273ffffffffffffffffffffffffffffffffffffffff163373ffffffffffffffffffffffffffffffffffffffff167f9b1bfa7fa9ee420a16e124f794c35ac9f90472acc99140eb2f6447c714cad8eb846040516103da919061049c565b60405180910390a3505050565b5f602052805f5260405f205f915090505481565b5f5ffd5b5f73ffffffffffffffffffffffffffffffffffffffff82169050919050565b5f610428826103ff565b9050919050565b6104388161041e565b8114610442575f5ffd5b50565b5f813590506104538161042f565b92915050565b5f6020828403121561046e5761046d6103fb565b5b5f61047b84828501610445565b91505092915050565b5f819050919050565b61049681610484565b82525050565b5f6020820190506104af5f83018461048d565b92915050565b5f6104bf826103ff565b9050919050565b6104cf816104b5565b81146104d9575f5ffd5b50565b5f813590506104ea816104c6565b92915050565b6104f981610484565b8114610503575f5ffd5b50565b5f81359050610514816104f0565b92915050565b5f5f604083850312156105305761052f6103fb565b5b5f61053d858286016104dc565b925050602061054e85828601610506565b9150509250929050565b5f82825260208201905092915050565b7f4e6f204554482073656e740000000000000000000000000000000000000000005f82015250565b5f61059c600b83610558565b91506105a782610568565b602082019050919050565b5f6020820190508181035f8301526105c981610590565b9050919050565b7f4e487b71000000000000000000000000000000000000000000000000000000005f52601160045260245ffd5b5f61060782610484565b915061061283610484565b925082820190508082111561062a576106296105d0565b5b92915050565b7f496e73756666696369656e74206465706f7369740000000000000000000000005f82015250565b5f610664601483610558565b915061066f82610630565b602082019050919050565b5f6020820190508181035f83015261069181610658565b9050919050565b5f6106a282610484565b91506106ad83610484565b92508282026106bb81610484565b915082820484148315176106d2576106d16105d0565b5b5092915050565b7f436f6e74726163742068617320696e73756666696369656e742066756e6473005f82015250565b5f61070d601f83610558565b9150610718826106d9565b602082019050919050565b5f6020820190508181035f83015261073a81610701565b9050919050565b5f61074b82610484565b915061075683610484565b925082820390508181111561076e5761076d6105d0565b5b9291505056fea26469706673582212203a7274d3a3946f48ccf8928b707e52886ace575f3ba77f9ef1efa54946b1246964736f6c634300081e0033",
					"opcodes": "PUSH1 0x80 PUSH1 0x40 MSTORE PUSH2 0x7AA DUP1 PUSH2 0x11 PUSH0 CODECOPY PUSH0 RETURN INVALID PUSH1 0x80 PUSH1 0x40 MSTORE PUSH1 0x4 CALLDATASIZE LT PUSH2 0x3E JUMPI PUSH0 CALLDATALOAD PUSH1 0xE0 SHR DUP1 PUSH4 0xD0E30DB0 EQ PUSH2 0x42 JUMPI DUP1 PUSH4 0xE1254FBA EQ PUSH2 0x4C JUMPI DUP1 PUSH4 0xF3FEF3A3 EQ PUSH2 0x88 JUMPI DUP1 PUSH4 0xFC7E286D EQ PUSH2 0xB0 JUMPI JUMPDEST PUSH0 PUSH0 REVERT JUMPDEST PUSH2 0x4A PUSH2 0xEC JUMP JUMPDEST STOP JUMPDEST CALLVALUE DUP1 ISZERO PUSH2 0x57 JUMPI PUSH0 PUSH0 REVERT JUMPDEST POP PUSH2 0x72 PUSH1 0x4 DUP1 CALLDATASIZE SUB DUP2 ADD SWAP1 PUSH2 0x6D SWAP2 SWAP1 PUSH2 0x459 JUMP JUMPDEST PUSH2 0x1D0 JUMP JUMPDEST PUSH1 0x40 MLOAD PUSH2 0x7F SWAP2 SWAP1 PUSH2 0x49C JUMP JUMPDEST PUSH1 0x40 MLOAD DUP1 SWAP2 SUB SWAP1 RETURN JUMPDEST CALLVALUE DUP1 ISZERO PUSH2 0x93 JUMPI PUSH0 PUSH0 REVERT JUMPDEST POP PUSH2 0xAE PUSH1 0x4 DUP1 CALLDATASIZE SUB DUP2 ADD SWAP1 PUSH2 0xA9 SWAP2 SWAP1 PUSH2 0x51A JUMP JUMPDEST PUSH2 0x215 JUMP JUMPDEST STOP JUMPDEST CALLVALUE DUP1 ISZERO PUSH2 0xBB JUMPI PUSH0 PUSH0 REVERT JUMPDEST POP PUSH2 0xD6 PUSH1 0x4 DUP1 CALLDATASIZE SUB DUP2 ADD SWAP1 PUSH2 0xD1 SWAP2 SWAP1 PUSH2 0x459 JUMP JUMPDEST PUSH2 0x3E7 JUMP JUMPDEST PUSH1 0x40 MLOAD PUSH2 0xE3 SWAP2 SWAP1 PUSH2 0x49C JUMP JUMPDEST PUSH1 0x40 MLOAD DUP1 SWAP2 SUB SWAP1 RETURN JUMPDEST PUSH0 CALLVALUE GT PUSH2 0x12E JUMPI PUSH1 0x40 MLOAD PUSH32 0x8C379A000000000000000000000000000000000000000000000000000000000 DUP2 MSTORE PUSH1 0x4 ADD PUSH2 0x125 SWAP1 PUSH2 0x5B2 JUMP JUMPDEST PUSH1 0x40 MLOAD DUP1 SWAP2 SUB SWAP1 REVERT JUMPDEST CALLVALUE PUSH0 PUSH0 CALLER PUSH20 0xFFFFFFFFFFFFFFFFFFFFFFFFFFFFFFFFFFFFFFFF AND PUSH20 0xFFFFFFFFFFFFFFFFFFFFFFFFFFFFFFFFFFFFFFFF AND DUP2 MSTORE PUSH1 0x20 ADD SWAP1 DUP2 MSTORE PUSH1 0x20 ADD PUSH0 KECCAK256 PUSH0 DUP3 DUP3 SLOAD PUSH2 0x179 SWAP2 SWAP1 PUSH2 0x5FD JUMP JUMPDEST SWAP3 POP POP DUP2 SWAP1 SSTORE POP CALLER PUSH20 0xFFFFFFFFFFFFFFFFFFFFFFFFFFFFFFFFFFFFFFFF AND PUSH32 0xE1FFFCC4923D04B559F4D29A8BFC6CDA04EB5B0D3C460751C2402C5C5CC9109C CALLVALUE PUSH1 0x40 MLOAD PUSH2 0x1C6 SWAP2 SWAP1 PUSH2 0x49C JUMP JUMPDEST PUSH1 0x40 MLOAD DUP1 SWAP2 SUB SWAP1 LOG2 JUMP JUMPDEST PUSH0 PUSH0 PUSH0 DUP4 PUSH20 0xFFFFFFFFFFFFFFFFFFFFFFFFFFFFFFFFFFFFFFFF AND PUSH20 0xFFFFFFFFFFFFFFFFFFFFFFFFFFFFFFFFFFFFFFFF AND DUP2 MSTORE PUSH1 0x20 ADD SWAP1 DUP2 MSTORE PUSH1 0x20 ADD PUSH0 KECCAK256 SLOAD SWAP1 POP SWAP2 SWAP1 POP JUMP JUMPDEST DUP1 PUSH0 PUSH0 CALLER PUSH20 0xFFFFFFFFFFFFFFFFFFFFFFFFFFFFFFFFFFFFFFFF AND PUSH20 0xFFFFFFFFFFFFFFFFFFFFFFFFFFFFFFFFFFFFFFFF AND DUP2 MSTORE PUSH1 0x20 ADD SWAP1 DUP2 MSTORE PUSH1 0x20 ADD PUSH0 KECCAK256 SLOAD LT ISZERO PUSH2 0x294 JUMPI PUSH1 0x40 MLOAD PUSH32 0x8C379A000000000000000000000000000000000000000000000000000000000 DUP2 MSTORE PUSH1 0x4 ADD PUSH2 0x28B SWAP1 PUSH2 0x67A JUMP JUMPDEST PUSH1 0x40 MLOAD DUP1 SWAP2 SUB SWAP1 REVERT JUMPDEST PUSH0 PUSH1 0x2 DUP3 PUSH2 0x2A2 SWAP2 SWAP1 PUSH2 0x698 JUMP JUMPDEST SWAP1 POP DUP1 SELFBALANCE LT ISZERO PUSH2 0x2E7 JUMPI PUSH1 0x40 MLOAD PUSH32 0x8C379A000000000000000000000000000000000000000000000000000000000 DUP2 MSTORE PUSH1 0x4 ADD PUSH2 0x2DE SWAP1 PUSH2 0x723 JUMP JUMPDEST PUSH1 0x40 MLOAD DUP1 SWAP2 SUB SWAP1 REVERT JUMPDEST DUP2 PUSH0 PUSH0 CALLER PUSH20 0xFFFFFFFFFFFFFFFFFFFFFFFFFFFFFFFFFFFFFFFF AND PUSH20 0xFFFFFFFFFFFFFFFFFFFFFFFFFFFFFFFFFFFFFFFF AND DUP2 MSTORE PUSH1 0x20 ADD SWAP1 DUP2 MSTORE PUSH1 0x20 ADD PUSH0 KECCAK256 PUSH0 DUP3 DUP3 SLOAD PUSH2 0x332 SWAP2 SWAP1 PUSH2 0x741 JUMP JUMPDEST SWAP3 POP POP DUP2 SWAP1 SSTORE POP DUP3 PUSH20 0xFFFFFFFFFFFFFFFFFFFFFFFFFFFFFFFFFFFFFFFF AND PUSH2 0x8FC DUP3 SWAP1 DUP2 ISZERO MUL SWAP1 PUSH1 0x40 MLOAD PUSH0 PUSH1 0x40 MLOAD DUP1 DUP4 SUB DUP2 DUP6 DUP9 DUP9 CALL SWAP4 POP POP POP POP ISZERO DUP1 ISZERO PUSH2 0x37C JUMPI RETURNDATASIZE PUSH0 PUSH0 RETURNDATACOPY RETURNDATASIZE PUSH0 REVERT JUMPDEST POP DUP3 PUSH20 0xFFFFFFFFFFFFFFFFFFFFFFFFFFFFFFFFFFFFFFFF AND CALLER PUSH20 0xFFFFFFFFFFFFFFFFFFFFFFFFFFFFFFFFFFFFFFFF AND PUSH32 0x9B1BFA7FA9EE420A16E124F794C35AC9F90472ACC99140EB2F6447C714CAD8EB DUP5 PUSH1 0x40 MLOAD PUSH2 0x3DA SWAP2 SWAP1 PUSH2 0x49C JUMP JUMPDEST PUSH1 0x40 MLOAD DUP1 SWAP2 SUB SWAP1 LOG3 POP POP POP JUMP JUMPDEST PUSH0 PUSH1 0x20 MSTORE DUP1 PUSH0 MSTORE PUSH1 0x40 PUSH0 KECCAK256 PUSH0 SWAP2 POP SWAP1 POP SLOAD DUP2 JUMP JUMPDEST PUSH0 PUSH0 REVERT JUMPDEST PUSH0 PUSH20 0xFFFFFFFFFFFFFFFFFFFFFFFFFFFFFFFFFFFFFFFF DUP3 AND SWAP1 POP SWAP2 SWAP1 POP JUMP JUMPDEST PUSH0 PUSH2 0x428 DUP3 PUSH2 0x3FF JUMP JUMPDEST SWAP1 POP SWAP2 SWAP1 POP JUMP JUMPDEST PUSH2 0x438 DUP2 PUSH2 0x41E JUMP JUMPDEST DUP2 EQ PUSH2 0x442 JUMPI PUSH0 PUSH0 REVERT JUMPDEST POP JUMP JUMPDEST PUSH0 DUP2 CALLDATALOAD SWAP1 POP PUSH2 0x453 DUP2 PUSH2 0x42F JUMP JUMPDEST SWAP3 SWAP2 POP POP JUMP JUMPDEST PUSH0 PUSH1 0x20 DUP3 DUP5 SUB SLT ISZERO PUSH2 0x46E JUMPI PUSH2 0x46D PUSH2 0x3FB JUMP JUMPDEST JUMPDEST PUSH0 PUSH2 0x47B DUP5 DUP3 DUP6 ADD PUSH2 0x445 JUMP JUMPDEST SWAP2 POP POP SWAP3 SWAP2 POP POP JUMP JUMPDEST PUSH0 DUP2 SWAP1 POP SWAP2 SWAP1 POP JUMP JUMPDEST PUSH2 0x496 DUP2 PUSH2 0x484 JUMP JUMPDEST DUP3 MSTORE POP POP JUMP JUMPDEST PUSH0 PUSH1 0x20 DUP3 ADD SWAP1 POP PUSH2 0x4AF PUSH0 DUP4 ADD DUP5 PUSH2 0x48D JUMP JUMPDEST SWAP3 SWAP2 POP POP JUMP JUMPDEST PUSH0 PUSH2 0x4BF DUP3 PUSH2 0x3FF JUMP JUMPDEST SWAP1 POP SWAP2 SWAP1 POP JUMP JUMPDEST PUSH2 0x4CF DUP2 PUSH2 0x4B5 JUMP JUMPDEST DUP2 EQ PUSH2 0x4D9 JUMPI PUSH0 PUSH0 REVERT JUMPDEST POP JUMP JUMPDEST PUSH0 DUP2 CALLDATALOAD SWAP1 POP PUSH2 0x4EA DUP2 PUSH2 0x4C6 JUMP JUMPDEST SWAP3 SWAP2 POP POP JUMP JUMPDEST PUSH2 0x4F9 DUP2 PUSH2 0x484 JUMP JUMPDEST DUP2 EQ PUSH2 0x503 JUMPI PUSH0 PUSH0 REVERT JUMPDEST POP JUMP JUMPDEST PUSH0 DUP2 CALLDATALOAD SWAP1 POP PUSH2 0x514 DUP2 PUSH2 0x4F0 JUMP JUMPDEST SWAP3 SWAP2 POP POP JUMP JUMPDEST PUSH0 PUSH0 PUSH1 0x40 DUP4 DUP6 SUB SLT ISZERO PUSH2 0x530 JUMPI PUSH2 0x52F PUSH2 0x3FB JUMP JUMPDEST JUMPDEST PUSH0 PUSH2 0x53D DUP6 DUP3 DUP7 ADD PUSH2 0x4DC JUMP JUMPDEST SWAP3 POP POP PUSH1 0x20 PUSH2 0x54E DUP6 DUP3 DUP7 ADD PUSH2 0x506 JUMP JUMPDEST SWAP2 POP POP SWAP3 POP SWAP3 SWAP1 POP JUMP JUMPDEST PUSH0 DUP3 DUP3 MSTORE PUSH1 0x20 DUP3 ADD SWAP1 POP SWAP3 SWAP2 POP POP JUMP JUMPDEST PUSH32 0x4E6F204554482073656E74000000000000000000000000000000000000000000 PUSH0 DUP3 ADD MSTORE POP JUMP JUMPDEST PUSH0 PUSH2 0x59C PUSH1 0xB DUP4 PUSH2 0x558 JUMP JUMPDEST SWAP2 POP PUSH2 0x5A7 DUP3 PUSH2 0x568 JUMP JUMPDEST PUSH1 0x20 DUP3 ADD SWAP1 POP SWAP2 SWAP1 POP JUMP JUMPDEST PUSH0 PUSH1 0x20 DUP3 ADD SWAP1 POP DUP2 DUP2 SUB PUSH0 DUP4 ADD MSTORE PUSH2 0x5C9 DUP2 PUSH2 0x590 JUMP JUMPDEST SWAP1 POP SWAP2 SWAP1 POP JUMP JUMPDEST PUSH32 0x4E487B7100000000000000000000000000000000000000000000000000000000 PUSH0 MSTORE PUSH1 0x11 PUSH1 0x4 MSTORE PUSH1 0x24 PUSH0 REVERT JUMPDEST PUSH0 PUSH2 0x607 DUP3 PUSH2 0x484 JUMP JUMPDEST SWAP2 POP PUSH2 0x612 DUP4 PUSH2 0x484 JUMP JUMPDEST SWAP3 POP DUP3 DUP3 ADD SWAP1 POP DUP1 DUP3 GT ISZERO PUSH2 0x62A JUMPI PUSH2 0x629 PUSH2 0x5D0 JUMP JUMPDEST JUMPDEST SWAP3 SWAP2 POP POP JUMP JUMPDEST PUSH32 0x496E73756666696369656E74206465706F736974000000000000000000000000 PUSH0 DUP3 ADD MSTORE POP JUMP JUMPDEST PUSH0 PUSH2 0x664 PUSH1 0x14 DUP4 PUSH2 0x558 JUMP JUMPDEST SWAP2 POP PUSH2 0x66F DUP3 PUSH2 0x630 JUMP JUMPDEST PUSH1 0x20 DUP3 ADD SWAP1 POP SWAP2 SWAP1 POP JUMP JUMPDEST PUSH0 PUSH1 0x20 DUP3 ADD SWAP1 POP DUP2 DUP2 SUB PUSH0 DUP4 ADD MSTORE PUSH2 0x691 DUP2 PUSH2 0x658 JUMP JUMPDEST SWAP1 POP SWAP2 SWAP1 POP JUMP JUMPDEST PUSH0 PUSH2 0x6A2 DUP3 PUSH2 0x484 JUMP JUMPDEST SWAP2 POP PUSH2 0x6AD DUP4 PUSH2 0x484 JUMP JUMPDEST SWAP3 POP DUP3 DUP3 MUL PUSH2 0x6BB DUP2 PUSH2 0x484 JUMP JUMPDEST SWAP2 POP DUP3 DUP3 DIV DUP5 EQ DUP4 ISZERO OR PUSH2 0x6D2 JUMPI PUSH2 0x6D1 PUSH2 0x5D0 JUMP JUMPDEST JUMPDEST POP SWAP3 SWAP2 POP POP JUMP JUMPDEST PUSH32 0x436F6E74726163742068617320696E73756666696369656E742066756E647300 PUSH0 DUP3 ADD MSTORE POP JUMP JUMPDEST PUSH0 PUSH2 0x70D PUSH1 0x1F DUP4 PUSH2 0x558 JUMP JUMPDEST SWAP2 POP PUSH2 0x718 DUP3 PUSH2 0x6D9 JUMP JUMPDEST PUSH1 0x20 DUP3 ADD SWAP1 POP SWAP2 SWAP1 POP JUMP JUMPDEST PUSH0 PUSH1 0x20 DUP3 ADD SWAP1 POP DUP2 DUP2 SUB PUSH0 DUP4 ADD MSTORE PUSH2 0x73A DUP2 PUSH2 0x701 JUMP JUMPDEST SWAP1 POP SWAP2 SWAP1 POP JUMP JUMPDEST PUSH0 PUSH2 0x74B DUP3 PUSH2 0x484 JUMP JUMPDEST SWAP2 POP PUSH2 0x756 DUP4 PUSH2 0x484 JUMP JUMPDEST SWAP3 POP DUP3 DUP3 SUB SWAP1 POP DUP2 DUP2 GT ISZERO PUSH2 0x76E JUMPI PUSH2 0x76D PUSH2 0x5D0 JUMP JUMPDEST JUMPDEST SWAP3 SWAP2 POP POP JUMP INVALID LOG2 PUSH5 0x6970667358 0x22 SLT KECCAK256 GASPRICE PUSH19 0x74D3A3946F48CCF8928B707E52886ACE575F3B 0xA7 PUSH32 0x9EF1EFA54946B1246964736F6C634300081E0033000000000000000000000000 "
				},
				"gasEstimates": {
					"creation": {
						"codeDepositCost": "392400",
						"executionCost": "404",
						"totalCost": "392804"
					},
					"external": {
						"deposit()": "infinite",
						"deposits(address)": "2845",
						"getDeposit(address)": "2828",
						"withdraw(address,uint256)": "infinite"
					}
				},
				"methodIdentifiers": {
					"deposit()": "d0e30db0",
					"deposits(address)": "fc7e286d",
					"getDeposit(address)": "e1254fba",
					"withdraw(address,uint256)": "f3fef3a3"
				}
			},
			"storageLayout": {
				"storage": [
					{
						"astId": 5,
						"contract": "HighYieldVault.sol:HighYieldVault",
						"label": "deposits",
						"offset": 0,
						"slot": "0",
						"type": "t_mapping(t_address,t_uint256)"
					}
				],
				"types": {
					"t_address": {
						"encoding": "inplace",
						"label": "address",
						"numberOfBytes": "20"
					},
					"t_mapping(t_address,t_uint256)": {
						"encoding": "mapping",
						"key": "t_address",
						"label": "mapping(address => uint256)",
						"numberOfBytes": "32",
						"value": "t_uint256"
					},
					"t_uint256": {
						"encoding": "inplace",
						"label": "uint256",
						"numberOfBytes": "32"
					}
				}
			},
			"userdoc": {
				"kind": "user",
				"methods": {},
				"version": 1
			}
		}
	}
}